{
  "contractName": "Health",
  "abi": [
    {
      "inputs": [
        {
          "internalType": "address",
          "name": "",
          "type": "address"
        }
      ],
      "name": "DOCTORS",
      "outputs": [
        {
          "internalType": "address",
          "name": "addr",
          "type": "address"
        },
        {
          "internalType": "string",
          "name": "name",
          "type": "string"
        },
        {
          "internalType": "string",
          "name": "hospital",
          "type": "string"
        },
        {
          "internalType": "string",
          "name": "specialization",
          "type": "string"
        },
        {
          "internalType": "uint256",
          "name": "age",
          "type": "uint256"
        }
      ],
      "stateMutability": "view",
      "type": "function",
      "constant": true
    },
    {
      "inputs": [
        {
          "internalType": "address",
          "name": "",
          "type": "address"
        }
      ],
      "name": "PATIENTS",
      "outputs": [
        {
          "internalType": "string",
          "name": "aadhar",
          "type": "string"
        },
        {
          "internalType": "string",
          "name": "name",
          "type": "string"
        },
        {
          "internalType": "string",
          "name": "email",
          "type": "string"
        },
        {
          "internalType": "uint256",
          "name": "age",
          "type": "uint256"
        },
        {
          "internalType": "uint256",
          "name": "recordSize",
          "type": "uint256"
        }
      ],
      "stateMutability": "view",
      "type": "function",
      "constant": true
    },
    {
      "inputs": [
        {
          "internalType": "address",
          "name": "",
          "type": "address"
        },
        {
          "internalType": "uint256",
          "name": "",
          "type": "uint256"
        }
      ],
      "name": "PHARMACY",
      "outputs": [
        {
          "internalType": "string",
          "name": "date",
          "type": "string"
        },
        {
          "internalType": "address",
          "name": "doctor",
          "type": "address"
        },
        {
          "internalType": "string",
          "name": "data",
          "type": "string"
        },
        {
          "internalType": "string",
          "name": "status",
          "type": "string"
        }
      ],
      "stateMutability": "view",
      "type": "function",
      "constant": true
    },
    {
      "inputs": [],
      "name": "doctorCount",
      "outputs": [
        {
          "internalType": "uint256",
          "name": "",
          "type": "uint256"
        }
      ],
      "stateMutability": "view",
      "type": "function",
      "constant": true
    },
    {
      "inputs": [],
      "name": "patientCount",
      "outputs": [
        {
          "internalType": "uint256",
          "name": "",
          "type": "uint256"
        }
      ],
      "stateMutability": "view",
      "type": "function",
      "constant": true
    },
    {
      "inputs": [
        {
          "internalType": "string",
          "name": "str1",
          "type": "string"
        },
        {
          "internalType": "string",
          "name": "str2",
          "type": "string"
        }
      ],
      "name": "compare",
      "outputs": [
        {
          "internalType": "bool",
          "name": "",
          "type": "bool"
        }
      ],
      "stateMutability": "pure",
      "type": "function",
      "constant": true
    },
    {
      "inputs": [
        {
          "internalType": "address",
          "name": "_addr",
          "type": "address"
        },
        {
          "internalType": "string",
          "name": "_name",
          "type": "string"
        },
        {
          "internalType": "string",
          "name": "_hospital",
          "type": "string"
        },
        {
          "internalType": "string",
          "name": "_special",
          "type": "string"
        },
        {
          "internalType": "uint256",
          "name": "_age",
          "type": "uint256"
        },
        {
          "internalType": "string",
          "name": "_password",
          "type": "string"
        }
      ],
      "name": "add_doctor",
      "outputs": [],
      "stateMutability": "nonpayable",
      "type": "function"
    },
    {
      "inputs": [
        {
          "internalType": "address",
          "name": "_addr",
          "type": "address"
        },
        {
          "internalType": "string",
          "name": "_password",
          "type": "string"
        }
      ],
      "name": "add_pharmacy",
      "outputs": [],
      "stateMutability": "nonpayable",
      "type": "function"
    },
    {
      "inputs": [
        {
          "internalType": "string",
          "name": "_aadhar",
          "type": "string"
        },
        {
          "internalType": "string",
          "name": "_name",
          "type": "string"
        },
        {
          "internalType": "string",
          "name": "_email",
          "type": "string"
        },
        {
          "internalType": "uint256",
          "name": "_age",
          "type": "uint256"
        },
        {
          "internalType": "string",
          "name": "_password",
          "type": "string"
        }
      ],
      "name": "add_patient",
      "outputs": [],
      "stateMutability": "nonpayable",
      "type": "function"
    },
    {
      "inputs": [],
      "name": "get_addressKey",
      "outputs": [
        {
          "internalType": "address",
          "name": "",
          "type": "address"
        },
        {
          "internalType": "string",
          "name": "",
          "type": "string"
        }
      ],
      "stateMutability": "view",
      "type": "function",
      "constant": true
    },
    {
      "inputs": [],
      "name": "getPassword",
      "outputs": [
        {
          "internalType": "string",
          "name": "",
          "type": "string"
        }
      ],
      "stateMutability": "view",
      "type": "function",
      "constant": true
    },
    {
      "inputs": [],
      "name": "getRole",
      "outputs": [
        {
          "internalType": "uint256",
          "name": "",
          "type": "uint256"
        }
      ],
      "stateMutability": "view",
      "type": "function",
      "constant": true
    },
    {
      "inputs": [],
      "name": "get_existing_aadhars",
      "outputs": [
        {
          "internalType": "string[]",
          "name": "",
          "type": "string[]"
        }
      ],
      "stateMutability": "view",
      "type": "function",
      "constant": true
    },
    {
      "inputs": [
        {
          "internalType": "string",
          "name": "_password",
          "type": "string"
        }
      ],
      "name": "login",
      "outputs": [
        {
          "internalType": "uint256",
          "name": "",
          "type": "uint256"
        }
      ],
      "stateMutability": "view",
      "type": "function",
      "constant": true
    },
    {
      "inputs": [
        {
          "internalType": "address",
          "name": "_addr",
          "type": "address"
        }
      ],
      "name": "get_patient",
      "outputs": [
        {
          "internalType": "string",
          "name": "",
          "type": "string"
        },
        {
          "internalType": "uint256",
          "name": "",
          "type": "uint256"
        },
        {
          "internalType": "string",
          "name": "email",
          "type": "string"
        }
      ],
      "stateMutability": "view",
      "type": "function",
      "constant": true
    },
    {
      "inputs": [
        {
          "internalType": "address",
          "name": "_addr",
          "type": "address"
        }
      ],
      "name": "get_doctor",
      "outputs": [
        {
          "internalType": "address",
          "name": "",
          "type": "address"
        },
        {
          "internalType": "string",
          "name": "",
          "type": "string"
        },
        {
          "internalType": "string",
          "name": "",
          "type": "string"
        },
        {
          "internalType": "string",
          "name": "",
          "type": "string"
        },
        {
          "internalType": "uint256",
          "name": "",
          "type": "uint256"
        }
      ],
      "stateMutability": "view",
      "type": "function",
      "constant": true
    },
    {
      "inputs": [
        {
          "internalType": "address",
          "name": "addr",
          "type": "address"
        }
      ],
      "name": "permit_access",
      "outputs": [],
      "stateMutability": "payable",
      "type": "function",
      "payable": true
    },
    {
      "inputs": [
        {
          "internalType": "address",
          "name": "daddr",
          "type": "address"
        }
      ],
      "name": "revoke_access",
      "outputs": [],
      "stateMutability": "payable",
      "type": "function",
      "payable": true
    },
    {
      "inputs": [],
      "name": "get_permitted_doctors",
      "outputs": [
        {
          "internalType": "address[]",
          "name": "",
          "type": "address[]"
        }
      ],
      "stateMutability": "view",
      "type": "function",
      "constant": true
    },
    {
      "inputs": [],
      "name": "get_accessible_patients",
      "outputs": [
        {
          "internalType": "address[]",
          "name": "",
          "type": "address[]"
        }
      ],
      "stateMutability": "view",
      "type": "function",
      "constant": true
    },
    {
      "inputs": [
        {
          "internalType": "address",
          "name": "patientAddr",
          "type": "address"
        },
        {
          "internalType": "string",
          "name": "_date",
          "type": "string"
        },
        {
          "internalType": "string",
          "name": "_diagnosis",
          "type": "string"
        },
        {
          "internalType": "string",
          "name": "_description",
          "type": "string"
        },
        {
          "internalType": "string",
          "name": "_prescription",
          "type": "string"
        },
        {
          "internalType": "string[]",
          "name": "_files",
          "type": "string[]"
        }
      ],
      "name": "add_patient_record",
      "outputs": [],
      "stateMutability": "nonpayable",
      "type": "function"
    },
    {
      "inputs": [
        {
          "internalType": "address",
          "name": "patientAddr",
          "type": "address"
        }
      ],
      "name": "get_patient_records",
      "outputs": [
        {
          "components": [
            {
              "internalType": "string",
              "name": "date",
              "type": "string"
            },
            {
              "internalType": "address",
              "name": "doctor",
              "type": "address"
            },
            {
              "internalType": "string",
              "name": "diagnosis",
              "type": "string"
            },
            {
              "internalType": "string",
              "name": "description",
              "type": "string"
            },
            {
              "internalType": "string",
              "name": "prescription",
              "type": "string"
            },
            {
              "internalType": "string[]",
              "name": "files",
              "type": "string[]"
            }
          ],
          "internalType": "struct Health.record[]",
          "name": "",
          "type": "tuple[]"
        }
      ],
      "stateMutability": "view",
      "type": "function",
      "constant": true
    },
    {
      "inputs": [
        {
          "internalType": "address",
          "name": "_patient",
          "type": "address"
        }
      ],
      "name": "get_prescriptions",
      "outputs": [
        {
          "components": [
            {
              "internalType": "string",
              "name": "date",
              "type": "string"
            },
            {
              "internalType": "address",
              "name": "doctor",
              "type": "address"
            },
            {
              "internalType": "string",
              "name": "data",
              "type": "string"
            },
            {
              "internalType": "string",
              "name": "status",
              "type": "string"
            }
          ],
          "internalType": "struct Health.prescription[]",
          "name": "",
          "type": "tuple[]"
        }
      ],
      "stateMutability": "view",
      "type": "function",
      "constant": true
    },
    {
      "inputs": [
        {
          "internalType": "address",
          "name": "_patient",
          "type": "address"
        }
      ],
      "name": "get_pending_prescriptions",
      "outputs": [
        {
          "components": [
            {
              "internalType": "string",
              "name": "date",
              "type": "string"
            },
            {
              "internalType": "address",
              "name": "doctor",
              "type": "address"
            },
            {
              "internalType": "string",
              "name": "data",
              "type": "string"
            },
            {
              "internalType": "string",
              "name": "status",
              "type": "string"
            }
          ],
          "internalType": "struct Health.prescription[]",
          "name": "",
          "type": "tuple[]"
        }
      ],
      "stateMutability": "view",
      "type": "function",
      "constant": true
    },
    {
      "inputs": [
        {
          "internalType": "address",
          "name": "_patient",
          "type": "address"
        },
        {
          "internalType": "uint256",
          "name": "_index",
          "type": "uint256"
        }
      ],
      "name": "resolve_prescription",
      "outputs": [],
      "stateMutability": "nonpayable",
      "type": "function"
    }
  ],
  "bytecode": "0x610140604052604260c081815260809182919062003ab260e039815260200160405180608001604052806042815260200162003af46042913990526200004a906005906002620000b5565b506040805180820190915273d2dd7c3007f8f9feafea45890747147f6530a47c8152734b1eb4bd30e27382e0df0856c36ec15b1488543c6020820152620000969060079060026200010c565b5060006009556000600a55348015620000ae57600080fd5b506200029c565b8260028101928215620000fa579160200282015b82811115620000fa5782518051620000e991849160209091019062000165565b5091602001919060010190620000c9565b5062000108929150620001e2565b5090565b826002810192821562000157579160200282015b828111156200015757825182546001600160a01b0319166001600160a01b0390911617825560209092019160019091019062000120565b506200010892915062000203565b82805462000173906200025f565b90600052602060002090601f01602090048101928262000197576000855562000157565b82601f10620001b257805160ff191683800117855562000157565b8280016001018555821562000157579182015b8281111562000157578251825591602001919060010190620001c5565b8082111562000108576000620001f982826200021a565b50600101620001e2565b5b8082111562000108576000815560010162000204565b50805462000228906200025f565b6000825580601f106200023c57506200025c565b601f0160209004906000526020600020908101906200025c919062000203565b50565b6002810460018216806200027457607f821691505b602082108114156200029657634e487b7160e01b600052602260045260246000fd5b50919050565b61380680620002ac6000396000f3fe6080604052600436106101665760003560e01c80638b12f18f116100d1578063a0303c411161008a578063cc8e239411610064578063cc8e239414610446578063e7b5fc3b14610468578063edea511114610488578063fde08174146104b957610166565b8063a0303c41146103fc578063b40c18aa14610411578063bcffb7ca1461043357610166565b80638b12f18f14610325578063900b8b0c146103525780639752c6df1461037257806397c0b61c146103955780639af7869f146103c55780639de989b2146103e757610166565b80633a96fdd7116101235780633a96fdd7146102545780634042d2d41461028157806356c98c48146102b05780635db90b09146102d057806375b4bdec146102f057806378522bc41461031057610166565b80630d6dcd911461016b5780631387974e1461018d57806318818a7e146101c757806326a26ed2146101f457806327b1dcee146102145780633a7d280c14610227575b600080fd5b34801561017757600080fd5b5061018b610186366004612fcf565b6104ce565b005b34801561019957600080fd5b506101ad6101a8366004612dd3565b61058b565b6040516101be9594939291906131a8565b60405180910390f35b3480156101d357600080fd5b506101e76101e2366004612dd3565b61075c565b6040516101be91906132b2565b34801561020057600080fd5b5061018b61020f366004612e40565b610b85565b61018b610222366004612dd3565b610da2565b34801561023357600080fd5b50610247610242366004612ff8565b610df1565b6040516101be91906136d8565b34801561026057600080fd5b5061027461026f366004613033565b610ff0565b6040516101be9190613481565b34801561028d57600080fd5b506102a161029c366004612dd3565b611049565b6040516101be93929190613540565b3480156102bc57600080fd5b506101ad6102cb366004612dd3565b61119f565b3480156102dc57600080fd5b506101e76102eb366004612dd3565b611394565b3480156102fc57600080fd5b5061018b61030b366004612f1b565b6115d6565b34801561031c57600080fd5b50610247611746565b34801561033157600080fd5b50610345610340366004612dd3565b61174c565b6040516101be9190613366565b34801561035e57600080fd5b5061018b61036d366004612df4565b611ba1565b34801561037e57600080fd5b50610387611bfe565b6040516101be929190613184565b3480156103a157600080fd5b506103b56103b0366004612fcf565b611cec565b6040516101be949392919061349f565b3480156103d157600080fd5b506103da611ee0565b6040516101be9190613205565b3480156103f357600080fd5b506103da611f50565b34801561040857600080fd5b50610247611fbe565b34801561041d57600080fd5b50610426611fc4565b6040516101be9190613252565b61018b610441366004612dd3565b61209d565b34801561045257600080fd5b5061045b612104565b6040516101be919061348c565b34801561047457600080fd5b5061018b61048336600461308a565b6121a1565b34801561049457600080fd5b506104a86104a3366004612dd3565b61259d565b6040516101be9594939291906134f2565b3480156104c557600080fd5b50610247612763565b60006104fa83836040518060400160405280600781526020016650656e64696e6760c81b815250612779565b90506040518060400160405280600881526020016714995cdbdb1d995960c21b81525060036000856001600160a01b03166001600160a01b03168152602001908152602001600020828154811061056157634e487b7160e01b600052603260045260246000fd5b90600052602060002090600402016003019080519060200190610585929190612b18565b50505050565b600260205260009081526040902080546001820180546001600160a01b0390921692916105b79061374e565b80601f01602080910402602001604051908101604052809291908181526020018280546105e39061374e565b80156106305780601f1061060557610100808354040283529160200191610630565b820191906000526020600020905b81548152906001019060200180831161061357829003601f168201915b5050505050908060020180546106459061374e565b80601f01602080910402602001604051908101604052809291908181526020018280546106719061374e565b80156106be5780601f10610693576101008083540402835291602001916106be565b820191906000526020600020905b8154815290600101906020018083116106a157829003601f168201915b5050505050908060030180546106d39061374e565b80601f01602080910402602001604051908101604052809291908181526020018280546106ff9061374e565b801561074c5780601f106107215761010080835404028352916020019161074c565b820191906000526020600020905b81548152906001019060200180831161072f57829003601f168201915b5050505050908060040154905085565b606060006107896040518060400160405280600781526020016650656e64696e6760c81b815250846128c5565b67ffffffffffffffff8111156107af57634e487b7160e01b600052604160045260246000fd5b6040519080825280602002602001820160405280156107e857816020015b6107d5612b9c565b8152602001906001900390816107cd5790505b5090506000805b6001600160a01b038516600090815260036020526040902054811015610b7a576001600160a01b0385166000908152600360205260409020805461090b91908390811061084c57634e487b7160e01b600052603260045260246000fd5b906000526020600020906004020160030180546108689061374e565b80601f01602080910402602001604051908101604052809291908181526020018280546108949061374e565b80156108e15780601f106108b6576101008083540402835291602001916108e1565b820191906000526020600020905b8154815290600101906020018083116108c457829003601f168201915b50505050506040518060400160405280600781526020016650656e64696e6760c81b815250610ff0565b15610b68576001600160a01b038516600090815260036020526040902080548290811061094857634e487b7160e01b600052603260045260246000fd5b90600052602060002090600402016040518060800160405290816000820180546109719061374e565b80601f016020809104026020016040519081016040528092919081815260200182805461099d9061374e565b80156109ea5780601f106109bf576101008083540402835291602001916109ea565b820191906000526020600020905b8154815290600101906020018083116109cd57829003601f168201915b505050918352505060018201546001600160a01b03166020820152600282018054604090920191610a1a9061374e565b80601f0160208091040260200160405190810160405280929190818152602001828054610a469061374e565b8015610a935780601f10610a6857610100808354040283529160200191610a93565b820191906000526020600020905b815481529060010190602001808311610a7657829003601f168201915b50505050508152602001600382018054610aac9061374e565b80601f0160208091040260200160405190810160405280929190818152602001828054610ad89061374e565b8015610b255780601f10610afa57610100808354040283529160200191610b25565b820191906000526020600020905b815481529060010190602001808311610b0857829003601f168201915b505050505081525050838381518110610b4e57634e487b7160e01b600052603260045260246000fd5b60200260200101819052508180610b6490613789565b9250505b80610b7281613789565b9150506107ef565b50909150505b919050565b6001600160a01b0386166000908152600160209081526040808320815160c0810183528981523381850152808301899052606081018890526080810187905260a0810186905260068201548552600582018452919093208151805192939192610bf19284920190612b18565b506020828101516001830180546001600160a01b0319166001600160a01b0390921691909117905560408301518051610c309260028501920190612b18565b5060608201518051610c4c916003840191602090910190612b18565b5060808201518051610c68916004840191602090910190612b18565b5060a08201518051610c84916005840191602090910190612bcd565b505050600681018054906000610c9983613789565b9190505550610cb76040518060200160405280600081525084610ff0565b610d99576001600160a01b038716600090815260036020908152604080832081516080810183528a815233818501528083018890528251808401909352600783526650656e64696e6760c81b83850152606081019290925280546001810182559084529282902081518051929460040290910192610d3a92849290910190612b18565b506020828101516001830180546001600160a01b0319166001600160a01b0390921691909117905560408301518051610d799260028501920190612b18565b5060608201518051610d95916003840191602090910190612b18565b5050505b50505050505050565b6001600160a01b038116600090815260026020526040902033908290600501610dcb8184612954565b506001600160a01b03821660009081526001602052604090206004016105858183612954565b60408051602080820183526000808352338082529181905292832060010180549192610ea692909190610e239061374e565b80601f0160208091040260200160405190810160405280929190818152602001828054610e4f9061374e565b8015610e9c5780601f10610e7157610100808354040283529160200191610e9c565b820191906000526020600020905b815481529060010190602001808311610e7f57829003601f168201915b5050505050610ff0565b610ecb5760405162461bcd60e51b8152600401610ec290613660565b60405180910390fd5b6001600160a01b03818116600090815260208190526040902054163314610f045760405162461bcd60e51b8152600401610ec2906135f4565b6001600160a01b03811660009081526020819052604090206001018054610fb39190610f2f9061374e565b80601f0160208091040260200160405190810160405280929190818152602001828054610f5b9061374e565b8015610fa85780601f10610f7d57610100808354040283529160200191610fa8565b820191906000526020600020905b815481529060010190602001808311610f8b57829003601f168201915b505050505084610ff0565b610fcf5760405162461bcd60e51b8152600401610ec2906136a1565b6001600160a01b031660009081526020819052604090206002015492915050565b6000816040516020016110039190613168565b604051602081830303815290604052805190602001208360405160200161102a9190613168565b6040516020818303038152906040528051906020012014905092915050565b6001600160a01b0381166000908152600160208190526040822060038101549181018054606094938593909160029091019083906110869061374e565b80601f01602080910402602001604051908101604052809291908181526020018280546110b29061374e565b80156110ff5780601f106110d4576101008083540402835291602001916110ff565b820191906000526020600020905b8154815290600101906020018083116110e257829003601f168201915b505050505092508080546111129061374e565b80601f016020809104026020016040519081016040528092919081815260200182805461113e9061374e565b801561118b5780601f106111605761010080835404028352916020019161118b565b820191906000526020600020905b81548152906001019060200180831161116e57829003601f168201915b505050505090509250925092509193909250565b6001600160a01b0380821660009081526002602081905260408220805460048201546001830180549596606096879687968a9690931694908301926003019184906111e99061374e565b80601f01602080910402602001604051908101604052809291908181526020018280546112159061374e565b80156112625780601f1061123757610100808354040283529160200191611262565b820191906000526020600020905b81548152906001019060200180831161124557829003601f168201915b505050505093508280546112759061374e565b80601f01602080910402602001604051908101604052809291908181526020018280546112a19061374e565b80156112ee5780601f106112c3576101008083540402835291602001916112ee565b820191906000526020600020905b8154815290600101906020018083116112d157829003601f168201915b505050505092508180546113019061374e565b80601f016020809104026020016040519081016040528092919081815260200182805461132d9061374e565b801561137a5780601f1061134f5761010080835404028352916020019161137a565b820191906000526020600020905b81548152906001019060200180831161135d57829003601f168201915b505050505091509450945094509450945091939590929450565b6001600160a01b0381166000908152600360209081526040808320805482518185028101850190935280835260609492939192909184015b828210156115cb57838290600052602060002090600402016040518060800160405290816000820180546113ff9061374e565b80601f016020809104026020016040519081016040528092919081815260200182805461142b9061374e565b80156114785780601f1061144d57610100808354040283529160200191611478565b820191906000526020600020905b81548152906001019060200180831161145b57829003601f168201915b505050918352505060018201546001600160a01b031660208201526002820180546040909201916114a89061374e565b80601f01602080910402602001604051908101604052809291908181526020018280546114d49061374e565b80156115215780601f106114f657610100808354040283529160200191611521565b820191906000526020600020905b81548152906001019060200180831161150457829003601f168201915b5050505050815260200160038201805461153a9061374e565b80601f01602080910402602001604051908101604052809291908181526020018280546115669061374e565b80156115b35780601f10611588576101008083540402835291602001916115b3565b820191906000526020600020905b81548152906001019060200180831161159657829003601f168201915b505050505081525050815260200190600101906113cc565b505050509050919050565b6001600160a01b0380871660008181526020819052604090205490911614156116115760405162461bcd60e51b8152600401610ec290613575565b6001600160a01b03861660008181526020818152604090912080546001600160a01b0319169092178255825161164d9260010191840190612b18565b506001600160a01b03861660009081526020819052604081206001600290910155600a80549161167c83613789565b90915550506001600160a01b038616600081815260026020818152604090922080546001600160a01b031916909317835586516116bf9390910191870190612b18565b506001600160a01b038616600090815260026020908152604090912084516116ef92600390920191860190612b18565b506001600160a01b0386166000908152600260209081526040909120865161171f92600190920191880190612b18565b50506001600160a01b03909416600090815260026020526040902060040193909355505050565b600a5481565b6001600160a01b0381166000908152600160205260408120600601546060919067ffffffffffffffff81111561179257634e487b7160e01b600052604160045260246000fd5b6040519080825280602002602001820160405280156117cb57816020015b6117b8612c26565b8152602001906001900390816117b05790505b50905060005b6001600160a01b038416600090815260016020526040902060060154811015611b9a576001600160a01b038416600090815260016020908152604080832084845260050190915290819020815160c081019092528054829082906118349061374e565b80601f01602080910402602001604051908101604052809291908181526020018280546118609061374e565b80156118ad5780601f10611882576101008083540402835291602001916118ad565b820191906000526020600020905b81548152906001019060200180831161189057829003601f168201915b505050918352505060018201546001600160a01b031660208201526002820180546040909201916118dd9061374e565b80601f01602080910402602001604051908101604052809291908181526020018280546119099061374e565b80156119565780601f1061192b57610100808354040283529160200191611956565b820191906000526020600020905b81548152906001019060200180831161193957829003601f168201915b5050505050815260200160038201805461196f9061374e565b80601f016020809104026020016040519081016040528092919081815260200182805461199b9061374e565b80156119e85780601f106119bd576101008083540402835291602001916119e8565b820191906000526020600020905b8154815290600101906020018083116119cb57829003601f168201915b50505050508152602001600482018054611a019061374e565b80601f0160208091040260200160405190810160405280929190818152602001828054611a2d9061374e565b8015611a7a5780601f10611a4f57610100808354040283529160200191611a7a565b820191906000526020600020905b815481529060010190602001808311611a5d57829003601f168201915b5050505050815260200160058201805480602002602001604051908101604052809291908181526020016000905b82821015611b54578382906000526020600020018054611ac79061374e565b80601f0160208091040260200160405190810160405280929190818152602001828054611af39061374e565b8015611b405780601f10611b1557610100808354040283529160200191611b40565b820191906000526020600020905b815481529060010190602001808311611b2357829003601f168201915b505050505081526020019060010190611aa8565b5050505081525050828281518110611b7c57634e487b7160e01b600052603260045260246000fd5b60200260200101819052508080611b9290613789565b9150506117d1565b5092915050565b6001600160a01b03821660008181526020818152604090912080546001600160a01b03191690921782558251611bdd9260010191840190612b18565b50506001600160a01b03166000908152602081905260409020600290810155565b600060606007600b5460028110611c2557634e487b7160e01b600052603260045260246000fd5b0154600b546001600160a01b039091169060059060028110611c5757634e487b7160e01b600052603260045260246000fd5b01808054611c649061374e565b80601f0160208091040260200160405190810160405280929190818152602001828054611c909061374e565b8015611cdd5780601f10611cb257610100808354040283529160200191611cdd565b820191906000526020600020905b815481529060010190602001808311611cc057829003601f168201915b50505050509050915091509091565b60036020528160005260406000208181548110611d0857600080fd5b906000526020600020906004020160009150915050806000018054611d2c9061374e565b80601f0160208091040260200160405190810160405280929190818152602001828054611d589061374e565b8015611da55780601f10611d7a57610100808354040283529160200191611da5565b820191906000526020600020905b815481529060010190602001808311611d8857829003601f168201915b505050600184015460028501805494956001600160a01b03909216949193509150611dcf9061374e565b80601f0160208091040260200160405190810160405280929190818152602001828054611dfb9061374e565b8015611e485780601f10611e1d57610100808354040283529160200191611e48565b820191906000526020600020905b815481529060010190602001808311611e2b57829003601f168201915b505050505090806003018054611e5d9061374e565b80601f0160208091040260200160405190810160405280929190818152602001828054611e899061374e565b8015611ed65780601f10611eab57610100808354040283529160200191611ed6565b820191906000526020600020905b815481529060010190602001808311611eb957829003601f168201915b5050505050905084565b3360008181526001602090815260409182902060040180548351818402810184019094528084526060949392830182828015611f4557602002820191906000526020600020905b81546001600160a01b03168152600190910190602001808311611f27575b505050505091505090565b3360008181526002602090815260409182902060050180548351818402810184019094528084526060949392830182828015611f45576020028201919060005260206000209081546001600160a01b03168152600190910190602001808311611f2757505050505091505090565b60095481565b60606004805480602002602001604051908101604052809291908181526020016000905b828210156120945783829060005260206000200180546120079061374e565b80601f01602080910402602001604051908101604052809291908181526020018280546120339061374e565b80156120805780601f1061205557610100808354040283529160200191612080565b820191906000526020600020905b81548152906001019060200180831161206357829003601f168201915b505050505081526020019060010190611fe8565b50505050905090565b6001600160a01b03166000818152600260209081526040808320600501805460018082018355918552838520018054336001600160a01b03199182168117909255908552818452918420600401805491820181558452919092200180549091169091179055565b336000818152602081905260409020600101805460609291906121269061374e565b80601f01602080910402602001604051908101604052809291908181526020018280546121529061374e565b8015611f455780601f1061217457610100808354040283529160200191611f45565b820191906000526020600020905b8154815290600101906020018083116121825750939695505050505050565b6000600b555b6002600b54101561223857612214604051806020016040528060008152506000806007600b54600281106121eb57634e487b7160e01b600052603260045260246000fd5b01546001600160a01b0316815260208101919091526040016000206001018054610e239061374e565b1561221e57612238565b600b805490600061222e83613789565b91905055506121a7565b6002600b541061225a5760405162461bcd60e51b8152600401610ec290613629565b6007600b546002811061227d57634e487b7160e01b600052603260045260246000fd5b0154600b546001600160a01b03909116906000908190600790600281106122b457634e487b7160e01b600052603260045260246000fd5b01546001600160a01b0390811682526020820192909252604001600090812080546001600160a01b03191693909216929092179055600b5482919081906007906002811061231257634e487b7160e01b600052603260045260246000fd5b01546001600160a01b031681526020808201929092526040016000208251612344936001909201929190910190612b18565b5060008060006007600b546002811061236d57634e487b7160e01b600052603260045260246000fd5b01546001600160a01b031681526020810191909152604001600090812060020191909155600980549161239f83613789565b90915550506004805460018101825560009190915285516123e7917f8a35acfbc15ff81a39ae7d344fd709f28e8600b4aa8c65c6b64bfe7fe36bd19b01906020880190612b18565b5084600160006007600b546002811061241057634e487b7160e01b600052603260045260246000fd5b01546001600160a01b03168152602080820192909252604001600020825161243e9391929190910190612b18565b5083600160006007600b546002811061246757634e487b7160e01b600052603260045260246000fd5b01546001600160a01b031681526020808201929092526040016000208251612499936001909201929190910190612b18565b5081600160006007600b54600281106124c257634e487b7160e01b600052603260045260246000fd5b01546001600160a01b031681526020810191909152604001600090812060030191909155600b5484916001916007906002811061250f57634e487b7160e01b600052603260045260246000fd5b01546001600160a01b031681526020808201929092526040016000208251612541936002909201929190910190612b18565b506000600160006007600b546002811061256b57634e487b7160e01b600052603260045260246000fd5b01546001600160a01b03168152602081019190915260400160002060060155600b5461259690612b13565b5050505050565b6001602052600090815260409020805481906125b89061374e565b80601f01602080910402602001604051908101604052809291908181526020018280546125e49061374e565b80156126315780601f1061260657610100808354040283529160200191612631565b820191906000526020600020905b81548152906001019060200180831161261457829003601f168201915b5050505050908060010180546126469061374e565b80601f01602080910402602001604051908101604052809291908181526020018280546126729061374e565b80156126bf5780601f10612694576101008083540402835291602001916126bf565b820191906000526020600020905b8154815290600101906020018083116126a257829003601f168201915b5050505050908060020180546126d49061374e565b80601f01602080910402602001604051908101604052809291908181526020018280546127009061374e565b801561274d5780601f106127225761010080835404028352916020019161274d565b820191906000526020600020905b81548152906001019060200180831161273057829003601f168201915b5050505050908060030154908060060154905085565b3360009081526020819052604090206002015490565b60008080805b6001600160a01b0387166000908152600360205260409020548110156128bb576001600160a01b0387166000908152600360205260409020805461287c9190839081106127dc57634e487b7160e01b600052603260045260246000fd5b906000526020600020906004020160030180546127f89061374e565b80601f01602080910402602001604051908101604052809291908181526020018280546128249061374e565b80156128715780601f1061284657610100808354040283529160200191612871565b820191906000526020600020905b81548152906001019060200180831161285457829003601f168201915b505050505086610ff0565b156128a9578261288b81613789565b935086905061289b60018561370b565b14156128a9578091506128bb565b806128b381613789565b91505061277f565b5095945050505050565b600080805b6001600160a01b03841660009081526003602052604090205481101561294c576001600160a01b038416600090815260036020526040902080546129279190839081106127dc57634e487b7160e01b600052603260045260246000fd5b1561293a578161293681613789565b9250505b8061294481613789565b9150506128ca565b509392505050565b60008060005b84548110156129c657836001600160a01b031685828154811061298d57634e487b7160e01b600052603260045260246000fd5b6000918252602090912001546001600160a01b031614156129b457600192508091506129c6565b806129be81613789565b91505061295a565b50816129e45760405162461bcd60e51b8152600401610ec2906135bd565b835460011415612a335783805480612a0c57634e487b7160e01b600052603160045260246000fd5b600082815260209020810160001990810180546001600160a01b0319169055019055610585565b83548490612a439060019061370b565b81548110612a6157634e487b7160e01b600052603260045260246000fd5b9060005260206000200160009054906101000a90046001600160a01b0316848281548110612a9f57634e487b7160e01b600052603260045260246000fd5b9060005260206000200160006101000a8154816001600160a01b0302191690836001600160a01b0316021790555083805480612aeb57634e487b7160e01b600052603160045260246000fd5b600082815260209020810160001990810180546001600160a01b031916905501905550505050565b600b55565b828054612b249061374e565b90600052602060002090601f016020900481019282612b465760008555612b8c565b82601f10612b5f57805160ff1916838001178555612b8c565b82800160010185558215612b8c579182015b82811115612b8c578251825591602001919060010190612b71565b50612b98929150612c65565b5090565b60405180608001604052806060815260200160006001600160a01b0316815260200160608152602001606081525090565b828054828255906000526020600020908101928215612c1a579160200282015b82811115612c1a5782518051612c0a918491602090910190612b18565b5091602001919060010190612bed565b50612b98929150612c7a565b6040518060c001604052806060815260200160006001600160a01b03168152602001606081526020016060815260200160608152602001606081525090565b5b80821115612b985760008155600101612c66565b80821115612b98576000612c8e8282612c97565b50600101612c7a565b508054612ca39061374e565b6000825580601f10612cb55750612cd3565b601f016020900490600052602060002090810190612cd39190612c65565b50565b80356001600160a01b0381168114610b8057600080fd5b600082601f830112612cfd578081fd5b8135602067ffffffffffffffff821115612d1957612d196137ba565b612d2681828402016136e1565b82815281810190858301855b85811015612d5b57612d49898684358b0101612d68565b84529284019290840190600101612d32565b5090979650505050505050565b600082601f830112612d78578081fd5b813567ffffffffffffffff811115612d9257612d926137ba565b612da5601f8201601f19166020016136e1565b818152846020838601011115612db9578283fd5b816020850160208301379081016020019190915292915050565b600060208284031215612de4578081fd5b612ded82612cd6565b9392505050565b60008060408385031215612e06578081fd5b612e0f83612cd6565b9150602083013567ffffffffffffffff811115612e2a578182fd5b612e3685828601612d68565b9150509250929050565b60008060008060008060c08789031215612e58578182fd5b612e6187612cd6565b9550602087013567ffffffffffffffff80821115612e7d578384fd5b612e898a838b01612d68565b96506040890135915080821115612e9e578384fd5b612eaa8a838b01612d68565b95506060890135915080821115612ebf578384fd5b612ecb8a838b01612d68565b94506080890135915080821115612ee0578384fd5b612eec8a838b01612d68565b935060a0890135915080821115612f01578283fd5b50612f0e89828a01612ced565b9150509295509295509295565b60008060008060008060c08789031215612f33578182fd5b612f3c87612cd6565b9550602087013567ffffffffffffffff80821115612f58578384fd5b612f648a838b01612d68565b96506040890135915080821115612f79578384fd5b612f858a838b01612d68565b95506060890135915080821115612f9a578384fd5b612fa68a838b01612d68565b94506080890135935060a0890135915080821115612fc2578283fd5b50612f0e89828a01612d68565b60008060408385031215612fe1578182fd5b612fea83612cd6565b946020939093013593505050565b600060208284031215613009578081fd5b813567ffffffffffffffff81111561301f578182fd5b61302b84828501612d68565b949350505050565b60008060408385031215613045578182fd5b823567ffffffffffffffff8082111561305c578384fd5b61306886838701612d68565b9350602085013591508082111561307d578283fd5b50612e3685828601612d68565b600080600080600060a086880312156130a1578081fd5b853567ffffffffffffffff808211156130b8578283fd5b6130c489838a01612d68565b965060208801359150808211156130d9578283fd5b6130e589838a01612d68565b955060408801359150808211156130fa578283fd5b61310689838a01612d68565b9450606088013593506080880135915080821115613122578283fd5b5061312f88828901612d68565b9150509295509295909350565b60008151808452613154816020860160208601613722565b601f01601f19169290920160200192915050565b6000825161317a818460208701613722565b9190910192915050565b6001600160a01b038316815260406020820181905260009061302b9083018461313c565b6001600160a01b038616815260a0602082018190526000906131cc9083018761313c565b82810360408401526131de818761313c565b905082810360608401526131f2818661313c565b9150508260808301529695505050505050565b6020808252825182820181905260009190848201906040850190845b818110156132465783516001600160a01b031683529284019291840191600101613221565b50909695505050505050565b6000602080830181845280855180835260408601915060408482028701019250838701855b828110156132a557603f1988860301845261329385835161313c565b94509285019290850190600101613277565b5092979650505050505050565b60208082528251828201819052600091906040908185019080840286018301878501865b8381101561335857603f198984030185528151608081518186526132fc8287018261313c565b838b01516001600160a01b0316878c0152898401518782038b8901529092509050613327828261313c565b91505060608083015192508582038187015250613344818361313c565b9689019694505050908601906001016132d6565b509098975050505050505050565b60208082528251828201819052600091906040908185019080840286018301878501865b8381101561335857603f19898403018552815160c081518186526133b08287018261313c565b838b01516001600160a01b0316878c0152898401518782038b89015290925090506133db828261313c565b915050606080830151868303828801526133f5838261313c565b9250505060808083015186830382880152613410838261313c565b60a094850151888203958901959095528451808252948c01949093508b8401925090508a810283018b018c5b8281101561346a57601f1985830301845261345882875161313c565b958d0195938d0193915060010161343c565b50988b01989650505092880192505060010161338a565b901515815260200190565b600060208252612ded602083018461313c565b6000608082526134b2608083018761313c565b6001600160a01b038616602084015282810360408401526134d3818661313c565b905082810360608401526134e7818561313c565b979650505050505050565b600060a0825261350560a083018861313c565b8281036020840152613517818861313c565b9050828103604084015261352b818761313c565b60608401959095525050608001529392505050565b600060608252613553606083018661313c565b846020840152828103604084015261356b818561313c565b9695505050505050565b60208082526028908201527f5468697320616464726573732068617320616c7265616479206265656e20726560408201526719da5cdd195c995960c21b606082015260800190565b60208082526019908201527f41646472657373206e6f7420666f756e6420696e206c69737400000000000000604082015260600190565b6020808252818101527f596f752063616e6e6f74206c6f67696e20746f2074686973206163636f756e74604082015260600190565b60208082526019908201527f4f7574206f6620706f737369626c652061646472657373657300000000000000604082015260600190565b60208082526021908201527f4163636f756e74206e6f7420666f756e642e20526567697374657220666972736040820152601d60fa1b606082015260800190565b60208082526017908201527f50617373776f726420646f6573206e6f74206d61746368000000000000000000604082015260600190565b90815260200190565b60405181810167ffffffffffffffff81118282101715613703576137036137ba565b604052919050565b60008282101561371d5761371d6137a4565b500390565b60005b8381101561373d578181015183820152602001613725565b838111156105855750506000910152565b60028104600182168061376257607f821691505b6020821081141561378357634e487b7160e01b600052602260045260246000fd5b50919050565b600060001982141561379d5761379d6137a4565b5060010190565b634e487b7160e01b600052601160045260246000fd5b634e487b7160e01b600052604160045260246000fdfea2646970667358221220ed36ce06d3171cf88cbe782e450e0d455abfde7a36d386dd1fab3896015a3c7f64736f6c63430008000033307864336433323061376463303834653962343536663266396535616663343236666130666337326630613266363265616535643631326136303937303161333630307833326264656336313536656434363038613132363630383330633630363161396335383362353061376634633466356138323866343738383939633563366164",
  "immutableReferences": {},
  "source": "// SPDX-License-Identifier: MIT\npragma solidity ^0.8.0;\n\ncontract Health {\n    struct user {\n        address addr;\n        string password;\n        uint categ;\n    }\n\n    struct record {\n        string date;\n        address doctor;\n        string diagnosis;\n        string description;\n        string prescription;\n        string[] files;\n    }\n\n    struct patient {\n        string aadhar;\n        string name;\n        string email;\n        uint age;\n        address[] doctorAccessList;\n        mapping(uint => record) recordMap;\n        uint recordSize;\n    }\n\n    struct doctor {\n        address addr;\n        string name;\n        string hospital;\n        string specialization;\n        uint age;\n        address[] patientAccessList;\n    }\n\n    struct prescription {\n        string date;\n        address doctor;\n        string data;\n        string status;\n    }\n\n    mapping(address => user) USERS;\n    mapping(address => patient) public PATIENTS;\n    mapping(address => doctor) public DOCTORS;\n    mapping(address => prescription[]) public PHARMACY;\n\n    string[] aadhar;\n\n    string[2] private_keys = [\n        \"0xd3d320a7dc084e9b456f2f9e5afc426fa0fc72f0a2f62eae5d612a609701a360\",\n        \"0x32bdec6156ed4608a12660830c6061a9c583b50a7f4c4f5a828f478899c5c6ad\"\n    ];\n    address[2] addresses = [\n        0xd2DD7c3007f8f9fEafEA45890747147F6530a47C,\n        0x4B1EB4bd30E27382e0df0856C36eC15B1488543C\n    ];\n\n    // variable to keep count of patients and doctors\n    uint public patientCount = 0;\n    uint public doctorCount = 0;\n\n    /* UTILITY FUNCTIONS */\n\n    function compare(\n        string memory str1,\n        string memory str2\n    ) public pure returns (bool) {\n        return\n            keccak256(abi.encodePacked(str1)) ==\n            keccak256(abi.encodePacked(str2));\n    }\n\n    function get_count(\n        string memory _filter,\n        address _addr\n    ) private view returns (uint) {\n        uint count = 0;\n        for (uint k = 0; k < PHARMACY[_addr].length; k++) {\n            if (compare(PHARMACY[_addr][k].status, _filter)) {\n                count++;\n            }\n        }\n        return count;\n    }\n\n    function find_actual_index(\n        address _patient,\n        uint _index,\n        string memory _filter\n    ) private view returns (uint) {\n        uint count = 0;\n        uint pos = 0;\n        for (uint p = 0; p < PHARMACY[_patient].length; p++) {\n            if (compare(PHARMACY[_patient][p].status, _filter)) {\n                count++;\n                if ((count - 1) == _index) {\n                    pos = p;\n                    break;\n                }\n            }\n        }\n        return pos;\n    }\n\n    /* AUTHENTICATION MODULE */\n\n    function add_doctor(\n        address _addr,\n        string memory _name,\n        string memory _hospital,\n        string memory _special,\n        uint _age,\n        string memory _password\n    ) public {\n        require(\n            USERS[_addr].addr != _addr,\n            \"This address has already been registered\"\n        );\n        USERS[_addr].addr = _addr;\n        USERS[_addr].password = _password;\n        USERS[_addr].categ = 1;\n\n        doctorCount++;\n        DOCTORS[_addr].addr = _addr;\n        DOCTORS[_addr].hospital = _hospital;\n        DOCTORS[_addr].specialization = _special;\n        DOCTORS[_addr].name = _name;\n        DOCTORS[_addr].age = _age;\n    }\n\n    function add_pharmacy(address _addr, string memory _password) public {\n        USERS[_addr].addr = _addr;\n        USERS[_addr].password = _password;\n        USERS[_addr].categ = 2;\n    }\n\n    function add_patient(\n        string memory _aadhar,\n        string memory _name,\n        string memory _email,\n        uint _age,\n        string memory _password\n    ) public {\n        // get available address and private key for the patient\n        i = 0;\n        while (i < addresses.length) {\n            if (compare(\"\", USERS[addresses[i]].password)) {\n                break;\n            }\n            i++;\n        }\n\n        require(i < addresses.length, \"Out of possible addresses\");\n        USERS[addresses[i]].addr = addresses[i];\n        USERS[addresses[i]].password = _password;\n        USERS[addresses[i]].categ = 0;\n\n        patientCount++;\n        aadhar.push(_aadhar);\n        PATIENTS[addresses[i]].aadhar = _aadhar;\n        PATIENTS[addresses[i]].name = _name;\n        PATIENTS[addresses[i]].age = _age;\n        PATIENTS[addresses[i]].email = _email;\n        PATIENTS[addresses[i]].recordSize = 0;\n\n        set_i(i);\n    }\n\n    uint i;\n\n    function set_i(uint x) private {\n        i = x;\n    }\n\n    // to get address and private key of the patient newly created\n    function get_addressKey() public view returns (address, string memory) {\n        return (addresses[i], private_keys[i]);\n    }\n\n    function getPassword() public view returns (string memory) {\n        address _addr = msg.sender;\n        return USERS[_addr].password;\n    }\n\n    function getRole() public view returns (uint) {\n        address _addr = msg.sender;\n        return USERS[_addr].categ;\n    }\n\n    function get_existing_aadhars() public view returns (string[] memory) {\n        return aadhar;\n    }\n\n    function login(string memory _password) public view returns (uint) {\n        address _addr = msg.sender;\n        // check if account with given address exists\n        require(\n            compare(\"\", USERS[_addr].password),\n            \"Account not found. Register first\"\n        );\n        // check if msg.sender if the owner of the account\n        require(\n            USERS[_addr].addr == msg.sender,\n            \"You cannot login to this account\"\n        );\n        // check if the stored and the inputted password match\n        require(\n            compare(USERS[_addr].password, _password),\n            \"Password does not match\"\n        );\n        // return category of the user\n        return USERS[_addr].categ;\n    }\n\n    function get_patient(\n        address _addr\n    ) public view returns (string memory, uint, string memory email) {\n        return (\n            PATIENTS[_addr].name,\n            PATIENTS[_addr].age,\n            PATIENTS[_addr].email\n        );\n    }\n\n    function get_doctor(\n        address _addr\n    )\n        public\n        view\n        returns (address, string memory, string memory, string memory, uint)\n    {\n        return (\n            DOCTORS[_addr].addr,\n            DOCTORS[_addr].name,\n            DOCTORS[_addr].hospital,\n            DOCTORS[_addr].specialization,\n            DOCTORS[_addr].age\n        );\n    }\n\n    /* ACCESS MANAGEMENT MODULE */\n\n    function permit_access(address addr) public payable {\n        DOCTORS[addr].patientAccessList.push(msg.sender);\n        PATIENTS[msg.sender].doctorAccessList.push(addr);\n    }\n\n    function revoke_access(address daddr) public payable {\n        address patientAddr = msg.sender;\n        address doctorAddr = daddr;\n\n        // remove patient's address from within the doctor's accesslist\n        address[] storage arr = DOCTORS[doctorAddr].patientAccessList;\n        remove_element_from_array(arr, patientAddr);\n\n        //remove doctor's address from within the patients's accesslist\n        arr = PATIENTS[patientAddr].doctorAccessList;\n        remove_element_from_array(arr, doctorAddr);\n\n        // payable(msg.sender).transfer(2 ether);\n    }\n\n    function remove_element_from_array(\n        address[] storage arr,\n        address addr\n    ) private {\n        // find index of this addr in the array\n        bool found = false;\n        uint target_index = 0;\n        for (uint j = 0; j < arr.length; j++) {\n            if (arr[j] == addr) {\n                found = true;\n                target_index = j;\n                break;\n            }\n        }\n        // if not found, revert\n        if (!found) revert(\"Address not found in list\");\n        else {\n            if (arr.length == 1) arr.pop();\n            else {\n                arr[target_index] = arr[arr.length - 1];\n                arr.pop();\n            }\n        }\n    }\n\n    function get_permitted_doctors() public view returns (address[] memory) {\n        address addr = msg.sender;\n        return PATIENTS[addr].doctorAccessList;\n    }\n\n    function get_accessible_patients() public view returns (address[] memory) {\n        address addr = msg.sender;\n        return DOCTORS[addr].patientAccessList;\n    }\n\n    /* DATA EXCHANGE MODULE */\n\n    function add_patient_record(\n        address patientAddr,\n        string memory _date,\n        string memory _diagnosis,\n        string memory _description,\n        string memory _prescription,\n        string[] memory _files\n    ) public {\n        patient storage p = PATIENTS[patientAddr];\n\n        p.recordMap[p.recordSize] = record(\n            _date,\n            msg.sender,\n            _diagnosis,\n            _description,\n            _prescription,\n            _files\n        );\n        p.recordSize++;\n\n        if (!compare(\"\", _prescription)) {\n            PHARMACY[patientAddr].push(\n                prescription(_date, msg.sender, _prescription, \"Pending\")\n            );\n        }\n    }\n\n    function get_patient_records(\n        address patientAddr\n    ) public view returns (record[] memory) {\n        record[] memory records = new record[](\n            PATIENTS[patientAddr].recordSize\n        );\n        for (uint k = 0; k < PATIENTS[patientAddr].recordSize; k++) {\n            records[k] = PATIENTS[patientAddr].recordMap[k];\n        }\n        return records;\n    }\n\n    /* PHARMACY MODULE */\n\n    // get history of all prescriptions for given patient\n    function get_prescriptions(\n        address _patient\n    ) public view returns (prescription[] memory) {\n        return PHARMACY[_patient];\n    }\n\n    // get pending prescriptions for given patient\n    function get_pending_prescriptions(\n        address _patient\n    ) public view returns (prescription[] memory) {\n        prescription[] memory requests = new prescription[](\n            get_count(\"Pending\", _patient)\n        );\n        uint k = 0;\n        for (uint j = 0; j < PHARMACY[_patient].length; j++) {\n            if (compare(PHARMACY[_patient][j].status, \"Pending\")) {\n                requests[k] = PHARMACY[_patient][j];\n                k++;\n            }\n        }\n        return requests;\n    }\n\n    // resolve a prescription for a patient\n    function resolve_prescription(address _patient, uint _index) public {\n        uint pos = find_actual_index(_patient, _index, \"Pending\");\n        PHARMACY[_patient][pos].status = \"Resolved\";\n    }\n}",
  "sourcePath": "C:\\Users\\hp\\Downloads\\distributed-healthcare-system-main (2)\\distributed-healthcare-system-main\\distributed-healthcare-system-main\\contracts\\Health.sol",
  "compiler": {
    "name": "solc",
    "version": "0.8.0+commit.c7dfd78e.Emscripten.clang"
  },
  "schemaVersion": "3.4.16",
  "updatedAt": "2024-04-24T13:15:11.395Z",
  "networkType": "ethereum",
  "devdoc": {
    "kind": "dev",
    "methods": {},
    "version": 1
  },
  "userdoc": {
    "kind": "user",
    "methods": {},
    "version": 1
  }
}